:020000040800F2
:10000000D0EF0020A1010008891D00085F1B000837
:10001000851D00089B0800087D22000800000000E4
:100020000000000000000000000000008F1D00081C
:10003000D1080008000000008D1D0008911D000877
:10004000BB010008BB010008BB010008BB010008A0
:10005000BB010008BB010008BB010008BB01000890
:10006000BB010008BB010008BB010008BB01000880
:10007000BB010008BB010008BB010008BB01000870
:10008000BB010008BB010008BB010008BB01000860
:10009000BB010008BB010008BB010008BB01000850
:1000A000BB010008BB010008BB010008BB01000840
:1000B000BB010008BB010008BB010008BB01000830
:1000C000BB010008BB010008BB010008BB01000820
:1000D000BB010008BB010008BB010008BB01000810
:1000E000BB010008BB010008BB010008BB01000800
:1000F000BB010008BB010008BB010008BB010008F0
:10010000BB010008BB010008BB010008BB010008DF
:10011000BB010008BB010008651E0008BB01000808
:10012000BB010008BB010008BB010008BB010008BF
:10013000BB010008BB010008BB010008BB010008AF
:10014000BB010008BB010008BB010008BB0100089F
:10015000BB010008BB010008BB010008BB0100088F
:10016000BB010008BB010008BB010008BB0100087F
:10017000BB010008BB010008BB0100080000000033
:10018000BB010008BB010008DFF810D000F036FB0F
:100190000048004775FF0208AFF30080D0EF002051
:1001A0000648804706480047FEE7FEE7FEE7FEE711
:1001B000FEE7FEE7FEE7FEE7FEE7FEE7511E00086A
:1001C000890100082DE9F05F0546002092469B4614
:1001D00088460646814640241BE02846414647465D
:1001E000224600F0DEF953465A46C01A914110D318
:1001F00011461846224600F0C5F92D1A67EB010892
:100200004F4622460120002100F0BCF917EB0009FF
:100210004E41201EA4F10104DFDC484631462A4647
:100220004346BDE8F09F10B5431A934209D28318A4
:10023000881803E010F8011D03F8011D521EF9D2C1
:1002400010BD40EA01039B0703D009E008C9121F53
:1002500008C0042AFAD203E011F8013B00F8013B80
:10026000521EF9D210BDD2B201E000F8012B491E96
:10027000FBD270470022F6E710B513460A46044643
:100280001946FFF7F0FF204610BD421C10F8011B75
:100290000029FBD1801A704710B5002200E0521CE3
:1002A000835C8C5CA34201D1002BF8D1D8B2E1B2BF
:1002B000401A10BD034611F8012B00F8012B002A4B
:1002C000F9D1184670472DE9FE4F81EA030404F086
:1002D000004421F0004100944FF0000B23F0004354
:1002E00050EA01045ED052EA03045BD0C3F30A541F
:1002F000C1F30A552C44A4F2F3340194A0FB025438
:10030000C1F3130141F48011C3F3130343F48013C9
:1003100001FB024400FB034E840A970A44EA81541D
:1003200047EA8357A4FB076802958D0A05FB0785FA
:100330004FEA932C04FB0C542705029D4FEA065804
:1003400047EA1637B5EB08056EEB070C870E920EE1
:1003500047EA811742EA8312A7FB0201B6EB0B01C1
:1003600064EB00042B0D43EA0C335E1844EB1C5085
:10037000DA465146E7FB0201C5F313044FEA0B339B
:1003800043EA14534FEA0432019C43EA0603A4F102
:100390000C040294009CCDE900B400F021F903B0F4
:1003A000BDE8F08F00200146F9E72DE9F04D81EA24
:1003B000030404F0004B21F0004514464FF0000AFE
:1003C00023F0004150EA050220D054EA01021DD07A
:1003D000C5F30A570246C5F31303C1F31300C1F373
:1003E0000A5640F4801543F48013A7EB0608101B4F
:1003F000D64608F2FD3873EB050002D308F1010878
:1004000001E092185B41B8F1000F03DA00200146C9
:10041000BDE8F08D00204FF48011064684460EE0C2
:10042000171B73EB050705D3121B63EB050306438C
:100430004CEA010C49084FEA300092185B4150EA3F
:100440000107EDD152EA030012D082EA040083EAE8
:100450000501084305D0101BAB4106D20122002341
:1004600006E000224FF0004302E06FF0010253105B
:100470001AEB06004CEB085110EB0A0041EB0B01A4
:10048000BDE8F04D00F09DB80EB5C10F80EAE070F8
:100490000844CA07002140F233438DE80E000A46A3
:1004A0000B4600F09DF803B000BD0EB540F233419D
:1004B00002910021CDE900110A460B4600F090F8A8
:1004C00003B000BDC1F30A5210B5C1F3130140F2ED
:1004D000FF3341F480119A4201DA002010BD40F24E
:1004E00033439A42A2F2334203DC524200F059F8FD
:1004F00010BD904010BD000030B5041E71F1000425
:1005000004DB4FF00044404264EB0101141E73F120
:10051000000405DB1C464FF00043524263EB04032A
:100520008B4208BF824230BD30B5041E71F1000419
:1005300004DB4FF00044404264EB0101141E73F1F0
:10054000000405DB1C464FF00043524263EB0403FA
:10055000994208BF904230BD30B50B46014600209D
:100560002022012409E021FA02F59D4205D303FA75
:1005700002F5491B04FA02F52844151EA2F10102F6
:10058000F1DC30BD202A04DB203A00FA02F1002021
:1005900070479140C2F1200320FA03F319439040C1
:1005A0007047202A04DB203A21FA02F0002170472C
:1005B00021FA02F3D040C2F12002914008431946CB
:1005C000704710B5141E73F1000408DA401C41F1A5
:1005D000000192185B411A4301D120F0010010BDC7
:1005E0002DE9F04D92469B4611B1B1FA81F202E03D
:1005F000B0FA80F220329046FFF7C4FF04460F465F
:1006000040EA0A0041EA0B0153465A46084313D018
:10061000114653EA010019D0C8F140025046FFF7D5
:10062000C0FF05460E46504659464246FFF7AAFF10
:10063000084305D0012004E020463946BDE8F08D8E
:100640000020054346EAE0762C4337430A986305C9
:10065000E40AA0EB08000022FD0A44EA47540A30ED
:1006600002D500200146E9E7010510196941DDE9DD
:10067000084500196941BDE8F04DA2E72DE9FE4F9C
:10068000804681EA0300C00F0C46009021F0004133
:1006900023F00045B8EB0200A94105D240462146AF
:1006A00090461C460B46024623F00040104347D0BC
:1006B000270DC7F30A00C3F30A510290401A0190B4
:1006C00040286BDAC3F3130040F4801B0098924675
:1006D00020B10023D2EB030A63EB0B0B01985946C0
:1006E000C0F140025046FFF74DFF06460D4650460A
:1006F0005946019A00F094F810EB0800614100247B
:1007000087EA115284EAE7731A4340D0009A62B331
:10071000019A012A4FEA075215DC001B61EB020126
:100720004FF0004202EA0752CDE90042001C41F5B9
:10073000801132462B46FFF753FF03B0BDE8F08F20
:1007400040462146F9E7001B61EB0201001C41F520
:10075000801300185B412018A2F5001747EB030136
:1007600040EAD570B6196D4111E06D084FEA3606C2
:1007700045EAC0754FEA0752001B61EB0201001CFD
:1007800041F5801149084FEA3000001951413246C5
:100790002B4603B0BDE8F04FFFF713BF00980122CE
:1007A00040000023D0EB020263EBE0730098214687
:1007B0004FEAE074B8EB000061EB0401E9E783F075
:1007C00000435BE781F0004158E7C1F30A52C1F3EF
:1007D000130140F2FF3341F480119A4202DA002003
:1007E0000146704740F233439A42A2F2334202DCA0
:1007F0005242FFF7D6BEFFF7C5BE0000064C074DBC
:1008000006E0E06840F0010394E8070098471034E0
:10081000AC42F6D3FFF7BCFC1C1005083C100508E1
:10082000202A06DBCB17203A41FA02F043EAE073B4
:1008300006E041FA02F3D040C2F1200291400843A1
:100840001946704770B58C1810F8015B15F0070356
:1008500001D110F8013B2A1106D110F8012B03E059
:1008600010F8016B01F8016B5B1EF9D12B0705D461
:100870000023521E0DD401F8013BFAE710F8013BAA
:10088000CB1A921C03E013F8015B01F8015B521EC6
:10089000F9D5A142D8D3002070BD00BFFEE700000B
:1008A0000948006800F0807028B90748006840F0E7
:1008B00080700549086000200449486008460068C7
:1008C00040F0010008607047FCED00E0001000E01F
:1008D000704772B600BFFEE770B50446B3F5804FAF
:1008E00013D1D1E9000540EA05108D6840EA0520E2
:1008F0008D6928438D8940EA054054F82250064E00
:100900003540284344F8220003E06FF0704044F87B
:100910002200002070BD00000000F0CF70B502463C
:10092000086852F8200020F001000E6842F8260006
:100930008868082801D1402300E000234868184354
:100940008E683043CE6830430E6930434E69304381
:10095000CE6930430E6A30434E6A30438E6A30436C
:10096000CE6A30430E6B40EA060488690443C86BC4
:100970000443074D45F4806545F4E025086852F8C6
:100980002000A84320430E6842F82600002070BDD6
:100990007FFB080010B50346D1E9000440EA0410CB
:1009A0008C6840EA04208C8940EA0444088A401E8E
:1009B00044EA0054087D801E44EA00608C692043AC
:1009C000541C43F82400002010BD000070B50446FC
:1009D00000F068F906462546681C10B10448007806
:1009E000054400BF00F05EF9801BA842FAD370BD39
:1009F0001000002000B587B0142102A8FFF73AFCD0
:100A00001B48006808B107B000BD01201849086004
:100A100000BF002001901748006840F00100154910
:100A200008600846006800F00100019000BF00BFA8
:100A30004FF6807002900220039000200490032063
:100A400005900C20069002A90B4800F019F84EF210
:100A5000B3700290022003900020049003200590C0
:100A60000C20069002A9054800F00AF800BFCAE76A
:100A7000000000203838024000100240000C024004
:100A8000F8B502460B460025002400200021D6E0E0
:100A9000012606FA01F51E6806EA0504AC4274D187
:100AA0001E7906F00306012E04D01E7906F0030617
:100AB000022E13D190684F000326BE40B0434F0072
:100AC000DE68BE4030439060506801268E40B043DF
:100AD0001E79C6F300168E40304350601E7906F032
:100AE0000306032E09D0D0684F000326BE40B04352
:100AF0004F009E68BE403043D0601E7906F003066A
:100B0000022E13D1CF0802F1200656F827004E0717
:100B1000F70E0F26BE40B0434F07FF0E1E69BE40C2
:100B20003043CF0802F1200646F8270010684F0036
:100B30000326BE40B0431E7906F003064F00BE40B8
:100B4000304310605E6806F44036002E76D000BF59
:100B5000002600963C4E366846F480463A4F3E608A
:100B60003E46366806F48046009600BF00BF374E0A
:100B70008F0856F827008E07370F0F26BE40B04368
:100B8000334EB24202D1002624E057E0314EB24249
:100B900001D101261EE0304EB24201D1022619E0F9
:100BA0002E4EB24201D1032614E02D4EB24201D1A5
:100BB00004260FE02B4EB24201D105260AE02A4E50
:100BC000B24201D1062605E0284EB24201D10726E5
:100BD00000E008268F073F0FBE4030431B4E8F08B2
:100BE00046F82700224E3068A0435E6806F480165F
:100BF00006B120431E4E3060361D3068A0435E684B
:100C000006F4001606B12043194E361D3060184E0A
:100C1000361F3068A0435E6806F4003606B12043F4
:100C2000134E361F3060361F3068A0435E6806F4EE
:100C3000803606B120430E4E083E3060491C102914
:100C4000FFF426AFF8BD00004438024008380140E8
:100C5000000002400004024000080240000C024074
:100C6000001002400014024000180240001C024024
:100C7000083C0140024613690B400BB1012000E023
:100C80000020704710B5426921EA020302EA01041C
:100C900043EA0443836110BD0AB1816101E00B04A2
:100CA0008361704701480068704700000800002019
:100CB00003480068034909780844014908607047FF
:100CC000080000201000002010B50D48006840F416
:100CD00000700B4908600846006840F480600860B6
:100CE0000846006840F480700860032000F0A6F811
:100CF0000F2000F007F800F02BF8002010BD0000D6
:100D0000003C024070B504460E4800784FF47A71FA
:100D1000B1FBF0F00C490968B1FBF0F5284600F092
:100D200063FC08B1012070BD102C07D200222146BF
:100D3000501E00F045F80548046001E00120F2E78C
:100D40000020F0E710000020140000200C0000201C
:100D500008B500BF002000900E48006840F48040B5
:100D60000C4908600846006800F48040009000BF0D
:100D700000BF00BF00200090081F006840F08050B6
:100D8000091F08600846006800F08050009000BF0E
:100D900000BF08BD443802400146084600280DDB6C
:100DA00000BF00BF00F01F0301229A4043099B00CF
:100DB00003F1E023C3F8002100BF00BF00BF70476C
:100DC0002DE9F05F80460D461646002701F07CFABB
:100DD000074639462A46334601F00700C0F1070AA4
:100DE000BAF1040F02D94FF0040A01E0C0F1070A7A
:100DF000D14600F1040ABAF1070F02D24FF0000AFF
:100E000001E0A0F1030AD4464FF0010A0AFA09FAF8
:100E1000AAF1010A0AEA020A0AFA0CFA4FF0010BD7
:100E20000BFA0CFBABF1010B0BEA030B4AEA0B04C8
:100E30002146404601F050FABDE8F09F00BF00F0A7
:100E40000702064B19684FF6FF031940044B0B438A
:100E500043EA0221014B196000BF70470CED00E02E
:100E60000000FA0570B504460D460CB9012070BDAE
:100E70005848006800F00700A84209D255490D7093
:100E80000846006800F00700A84201D00120EEE704
:100E9000207800F0020002281DD1207800F0040024
:100EA000042805D14C48006840F4E0504A490860E5
:100EB000207800F00800082805D14748006840F471
:100EC0006040454908604448006820F0F000A1688F
:100ED000084341490860207800F00100A8B3606829
:100EE000012807D13C4808380068C0F34040B8B931
:100EF0000120BCE76068022802D06068032807D19F
:100F0000354808380068C0F3406048B90120AEE7B2
:100F1000314808380068C0F3400008B90120A6E74E
:100F20002D48006820F00300616808432A490860E2
:100F3000FFF7B8FE064609E0FFF7B4FE801B41F25A
:100F40008831884202D9032091E707E022480068EF
:100F500000F00C006168B0EB810FEDD11D48006816
:100F600000F00700A84209D91A490D700846006828
:100F700000F00700A84201D0012078E7207800F0B7
:100F80000400042807D11448006820F4E050E16808
:100F9000084311490860207800F00800082808D1AB
:100FA0000D48006820F46040216940EAC1000A4908
:100FB000086000F03FF808490968C1F30311074AC7
:100FC000515CC8400649086006480068FFF79AFE71
:100FD00000204CE7003C02400838024066790308D4
:100FE000140000200C000020014800687047000039
:100FF0001400002000B5FFF7F7FF04490968C1F3AA
:101000008221034A515CC84000BD000008380240FC
:101010007679030800B5FFF7E7FF04490968C1F3D3
:101020004231034A515CC84000BD0000083802400C
:10103000767903082DE9F047002400250026A14613
:101040002548006800F00C0020B1042805D00828CD
:101050003AD105E0DFF8849039E0DFF8849036E09B
:101060001D48001F006800F03F041B48001F006877
:1010700000F4800078B11A481749091F0968C1F3C4
:101080008811A0FB01700146224600233846FFF775
:1010900099F805460EE011480F49091F0968C1F388
:1010A0008811A0FB01700146224600233846FFF755
:1010B00089F805460848001F0068C0F30140401C3D
:1010C0004600B5FBF6F902E0DFF8109000BF00BF64
:1010D0004846BDE8F0870000083802400024F400CC
:1010E00000127A00F8B504460CB90120F8BD20784A
:1010F00000F00100002874D0F948006800F00C00EE
:1011000004280DD0F648006800F00C00082813D120
:10111000F348001F006800F48000B0F5800F0BD189
:10112000EF4808380068C0F34040002859D0606894
:10113000002856D10120D9E700BF6068B0F5803F94
:1011400008D1E7480838006840F48030E44908399D
:1011500008601EE06068B0F5A02F0DD1E0480838A7
:10116000006840F48020DE490839086008460068BD
:1011700040F4803008600CE0D9480838006820F45A
:101180008030D749083908600846006820F480207C
:10119000086000BF606890B1FFF784FD054606E077
:1011A000FFF780FD401B642801D903209EE7CC484F
:1011B00008380068C0F340400028F1D011E0FFF784
:1011C00071FD054606E0FFF76DFD401B642801D95F
:1011D00003208BE7C24808380068C0F3404000286D
:1011E000F1D1207800F0020002285FD1BC480068ED
:1011F00000F00C0058B1BA48006800F00C00082854
:101200001CD1B748001F006800F48000B0B9B44892
:1012100008380068C0F3400020B1E068012801D020
:10122000012063E7AE480838006820F0F800216923
:1012300040EAC100AA490839086037E0E06800B315
:101240000120A8490860FFF72DFD054606E0FFF7DD
:1012500029FD401B022801D9032047E7A048083890
:101260000068C0F340000028F1D09D4808380068AD
:1012700020F0F800216940EAC10099490839086066
:1012800014E0002097490860FFF70CFD054606E0D2
:10129000FFF708FD401B022801D9032026E79048EC
:1012A00008380068C0F340000028F1D1207800F031
:1012B000080008282CD16069A8B101208A4908607B
:1012C000FFF7F0FC054606E0FFF7ECFC401B0228A8
:1012D00001D903200AE782486C300068C0F340005F
:1012E0000028F1D014E000207F490860FFF7DAFC05
:1012F000054606E0FFF7D6FC401B022801D9032073
:10130000F4E677486C300068C0F340000028F1D163
:10131000207800F00400042870D10027704838308D
:10132000006800F0805090B900BF002000906C4829
:101330003830006840F0805069493831086008460C
:10134000006800F08050009000BF00BF0127674890
:10135000006800F48070B0B96448006840F48070A0
:1013600062490860FFF79EFC054606E0FFF79AFC1D
:10137000401B022801D90320B8E65C48006800F44D
:1013800080700028F2D000BFA068012808D154481E
:101390006830006840F001005149683108601DE084
:1013A000A06805280DD14E486830006840F0040060
:1013B0004B49683108600846006840F00100086049
:1013C0000CE047486830006820F00100444968316B
:1013D00008600846006820F00400086000BFA068AC
:1013E000A8B1FFF75FFC054609E0FFF75BFC401B77
:1013F00041F28831884202D9032077E626E0384856
:1014000068300068C0F340000028EED013E0FFF71A
:1014100049FC054608E0FFF745FC401B41F28831D6
:10142000884201D9032061E62D4868300068C0F386
:1014300040000028EFD1012F07D12948383000683B
:1014400020F0805026493831086000BFA06900288C
:1014500045D02348006800F00C0008285DD0A06942
:10146000022845D100201F490866FFF71BFC0546EE
:1014700006E0FFF717FC401B022801D9032035E6E0
:10148000174808380068C0F340600028F1D1D4E95B
:1014900007010843616A40EA81110122A06AC2EB98
:1014A000500041EA00412C20005D41EA00600C49F7
:1014B000091F086001200B490866FFF7F3FB05468A
:1014C00006E0FFF7EFFB401B022801D903200DE6E1
:1014D000034808380068C0F340600028F1D049E0B4
:1014E0000838024000004742800E4742007000402A
:1014F000002021490866FFF7D5FB054606E0FFF707
:10150000D1FB401B022801D90320EFE51B480068EE
:10151000C0F340600028F2D12CE0A069012800D17E
:10152000E4E51648001D0668A069012820D006F4ED
:101530008001E06981421BD106F03F01206A8142AF
:1015400016D147F6C0703040616AB0EB811F0FD1F1
:1015500006F440310122A06AC2EB5000B1EB004F0B
:1015600006D106F070612C20005DB1EB006F01D058
:101570000120BBE50020B9E50000474200380240E9
:1015800070B504460E4615460CB9012070BD94F89E
:10159000490028B9002084F84800204600F01FF8D0
:1015A00004F108012068FFF7B9F93146A268206804
:1015B000FFF7F0F92946236BD4E90102FFF78CF914
:1015C000A168206850F8210040F00100A26821685D
:1015D00041F82200012084F849000020D6E710B528
:1015E0000446FFF707FA10BD70B504462546681E8D
:1015F000B0F1807F01D301200FE0681E4FF0E021A1
:1016000048610F214FF0FF3000F066FE00204FF0E0
:10161000E021886107200861002070BD7047704795
:1016200030B502460B4600BF92F83C00012801D1BC
:10163000022030BD012082F83C0000BF022082F869
:101640003D00106844681068816824F070041868D0
:10165000044310684460184D1068A8421BD01068FD
:10166000B0F1804F17D0154D1068A84213D0144D1B
:101670001068A8420FD0134D1068A8420BD0124D2D
:101680001068A84207D0114D1068A84203D0104D31
:101690001068A84205D121F0800158680143106804
:1016A0008160012082F83D0000BF002082F83C00EC
:1016B00000BF00BFBDE70000000001400004004083
:1016C00000080040000C00400004014000400140C0
:1016D0000018004010B504460CB9012010BD94F864
:1016E0003D0028B9002084F83C00204600F026F890
:1016F000022084F83D00211D206800F0BDFB012080
:1017000084F8460000BF84F83E0001213F200155C7
:10171000402001554120015500BF00BF012084F841
:10172000420043200155442001554520015500BF8A
:10173000012084F83D000020D0E7000038B50446C1
:101740000E492068884217D100BF002000900C4845
:10175000006840F010000A4908600846006800F080
:101760001000009000BF00BF002211463620FFF796
:1017700027FB3620FFF710FB38BD000000100040AB
:1017800040380240014691F83D00012801D0012077
:101790007047022081F83D000868C06840F00100F1
:1017A0000B68D8601A4B086898421BD00868B0F1E3
:1017B000804F17D0174B0868984213D0164B086813
:1017C00098420FD0154B086898420BD0144B08680C
:1017D000984207D0134B0868984203D0124B086810
:1017E00098420CD10868806800F00702062A0CD0E5
:1017F0000868006840F001000B68186005E00868A0
:10180000006840F001000B6818600020C0E700008D
:10181000000001400004004000080040000C0040AF
:10182000000401400040014000180040704770B5BE
:1018300004462068C5682068066906F00200022890
:1018400019D105F00200022815D1401F2168086156
:10185000012020772068806900F0030018B120463D
:10186000FFF7E4FF05E0204600F097F8204600F07F
:1018700095F80020207706F00400042819D105F01F
:101880000400042815D1C043216808610220207794
:101890002068806900F4407018B12046FFF7C6FF49
:1018A00005E0204600F079F8204600F077F80020A7
:1018B000207706F00800082819D105F0080008284C
:1018C00015D1C04321680861042020772068C069D1
:1018D00000F0030018B12046FFF7A8FF05E02046FE
:1018E00000F05BF8204600F059F80020207706F061
:1018F0001000102819D105F01000102815D1C04390
:1019000021680861082020772068C06900F44070D1
:1019100018B12046FFF78AFF05E0204600F03DF8A9
:10192000204600F03BF80020207706F0010048B187
:1019300005F0010030B16FF0010021680861204618
:1019400000F02DF806F08000802809D105F0800015
:10195000802805D1C043216808612046FFF75EFE5C
:1019600006F04000402809D105F04000402805D18C
:10197000C04321680861204600F012F806F02000FC
:10198000202809D105F02000202805D1C043216876
:1019900008612046FFF743FE70BD704770477047EF
:1019A000704710B504460CB9012010BDA06900B104
:1019B00000E000BF94F8410028B9002084F84000FE
:1019C000204600F029F8242084F841002068C068EF
:1019D00020F400502168C860204600F0F3FA206827
:1019E000006920F49040216808612068406920F077
:1019F0002A00216848612068C06840F400502168CE
:101A0000C86000206064202084F8410084F842000F
:101A10000020606300BFC8E710B586B004461421FB
:101A200001A8FEF727FC1B492068884230D100BF7F
:101A3000002000901848006840F010001649086027
:101A40000846006800F01000009000BF00BF00BF13
:101A50000020009010481438006840F001000E4942
:101A6000143908600846006800F00100009000BFCB
:101A700000BF4FF4C060019002200290002003904C
:101A8000032004900720059001A90448FEF7F8FF01
:101A900006B010BD00100140443802400000024072
:101AA0002DE9F84F04460E46174699464FF0000AB6
:101AB00094F84100202850D106B117B90120BDE8A3
:101AC000F88F00206064212084F84100FFF7EAF8D5
:101AD0008246A784E784A068B0F5805F04D12069BE
:101AE00010B90025B04602E035464FF000081EE070
:101AF0005346002280212046CDF8009000F078FB6C
:101B000020B1202084F841000320D8E745B9B8F877
:101B10000000C0F308002168486008F1020803E0F3
:101B20002878216848606D1CE08C401EE084E08CC1
:101B30000028DDD15346002240212046CDF80090F8
:101B400000F056FB20B1202084F841000320B6E7C6
:101B5000202084F841000020B1E70220AFE700BF59
:101B6000FEE7000000B58FB01C2108A8FEF782FB3D
:101B70001C2101A8FEF77EFB4FF0204020490860A1
:101B8000204848600020886000211D48C160016134
:101B90001021416100218161C161016241624FF404
:101BA000805181620021C1624FF4804101630021B4
:101BB0004163816341640F20089009903C200A90A2
:101BC00000200B9010200C9011200D9000200E9002
:101BD000092001900F20029009200390002004901A
:101BE00010200590112006900020079001AA08A956
:101BF0000348FFF7C5FC08B1FEF76BFE0FB000BD50
:101C0000BC020020040100A000B587B0142102A886
:101C1000FEF730FB00BF002001903548006840F01F
:101C20008000334908600846006800F08000019099
:101C300000BF00BF00BF002001900846006840F0D0
:101C4000010008600846006800F00100019000BF34
:101C500000BF00BF002001900846006840F002006D
:101C600008600846006800F00200019000BF00BF55
:101C700000BF002001900846006840F01000086096
:101C80000846006800F01000019000BF00BF00BFD0
:101C9000002001900846006840F0080008600846EF
:101CA000006800F00800019000BF00BF0122C021C1
:101CB0001048FEF7F1FF002202210F48FEF7ECFF6B
:101CC000C02002900120039004900320059002A9F7
:101CD0000848FEF7D5FE0220029001200390002064
:101CE0000490059002A90448FEF7CAFE07B000BDA3
:101CF0003038024000000240000402401CB50020C1
:101D0000009001900F48104908605420486000215D
:101D10000D48816040F2E731C16000218161FFF729
:101D2000D9FC08B1FEF7D5FD00200090019069466E
:101D30000548FFF775FC08B1FEF7CBFD0248FFF739
:101D400021FD1CBD001000400C03002010B50B4805
:101D50000B4908604FF4E130486000210848816079
:101D6000C16001610C21416100218161C161FFF706
:101D700018FE08B1FEF7ADFD10BD000000100140D7
:101D80005403002000BFFEE700BFFEE77047704726
:101D900010B5FEF78DFF10BD00B593B0302107A838
:101DA000FEF768FA142102A8FEF764FA00BF0020CB
:101DB00001902548006840F080502349086008469B
:101DC000006800F08050019000BF00BF00BF0020FD
:101DD00001901E48006840F480401C490860084695
:101DE000006800F48040019000BF00BF022007900F
:101DF00001200A9010200B9002200D9000210E91DE
:101E000008210F91A8211091022111910421129112
:101E100007A8FFF767F908B1FEF75BFD0F200290F6
:101E200002200390002004904FF4A05005904FF43E
:101E300080500690052102A8FFF714F808B1FEF7BC
:101E400048FD13B000BD0000403802400070004063
:101E50000348006840F470000149086070470000C2
:101E600088ED00E010B50348FFF7E1FC01202DF0FC
:101E700003FA10BD0C03002010B502682B4B9842EA
:101E80000ED0B0F1804F0BD0294B984208D0294B8F
:101E9000984205D0284B984202D0284B984203D153
:101EA00022F070024B681A43204B984220D0B0F1C8
:101EB000804F1DD01E4B98421AD01E4B984217D00F
:101EC0001D4B984214D01D4B984211D01C4B984288
:101ED0000ED01C4B98420BD01B4B984208D01B4B8A
:101EE000984205D01A4B984202D01A4B984203D11F
:101EF00022F44072CB681A4322F080034C6943EA13
:101F000004028B68C3620B688362084B984202D05C
:101F10000A4B984201D10B690363036843F0040341
:101F2000036001234361026010BD00000000014016
:101F30000004004000080040000C00400004014084
:101F400000400140004401400048014000180040AA
:101F5000001C00400020004000BF00BF02680C329F
:101F600052E8002F22F4907102680C3242E800130C
:101F7000002BF3D100BF00BF00BF0268143252E84B
:101F8000002F22F001010268143242E80013002BF6
:101F9000F3D100BF016B01290ED100BF00BF026861
:101FA0000C3252E8002F22F0100102680C3242E895
:101FB0000013002BF3D100BF202180F84210002134
:101FC000016370472DE9F84F04462068006920F44A
:101FD0004050E1680843216808612169A06808430E
:101FE00061690843E169084300902068C06849F2CC
:101FF0000C618843009908432168C86020684069E3
:1020000020F44070A169084321684861764920683E
:10201000884203D075492068884203D1FEF7FAFF51
:10202000814602E0FEF7E6FF8146E069B0F5004F29
:102030006CD102206168A0FB015003461920A9FB66
:10204000007001462A463846FEF7BCF86421B0FB12
:10205000F1F04FEA001A02206168A0FB01510B4623
:102060001920A9FB00712A463846FEF7ABF88346D3
:1020700002206168A0FB015003461920A9FB0071F2
:102080002A463846FEF79EF86421B0FBF1F000EBDB
:10209000C00101EB0010ABEB8000322101EBC0006E
:1020A0006421B0FBF1F000F0F8000AEB400A0220D6
:1020B0006168A0FB015003461920A9FB007001468E
:1020C0002A463846FEF77EF8834602206168A0FB68
:1020D000015003461920A9FB00712A463846FEF735
:1020E00071F86421B0FBF1F000EBC00101EB0010CE
:1020F000ABEB8000322101EBC0006421B0FBF1F0BA
:1021000000F007005044216888606AE0042061689C
:10211000A0FB015003461920A9FB007001462A4686
:102120003846FEF74FF8824604206168A0FB015054
:1021300003461920A9FB007001462A463846FEF7DF
:1021400041F86421B0FBF1F000EBC00101EB00109D
:10215000AAEB8000322101EB00106421B0FBF1F00A
:1021600000F0F00A04206168A0FB0170034619200A
:10217000A9FB00513A462846FEF724F86421B0FB3B
:10218000F1F00AEB001A04206168A0FB01510B4634
:102190001920A9FB00712A463846FEF713F883463A
:1021A00004206168A0FB015003461920A9FB0070C0
:1021B00001462A463846FEF705F86421B0FBF1F0E7
:1021C00000EBC00101EB0010ABEB8000322101EB12
:1021D00000106421B0FBF1F000F00F0050442168C2
:1021E0008860BDE8F88F0000001001400014014035
:1021F0002DE9F84304460D4617469846089E31E0FF
:10220000701C70B3FEF74EFDA0EB0800B04200D882
:1022100016B90320BDE8F8832068C06800F0040008
:10222000F8B1802D1ED0402D1CD020680068C0F36E
:10223000C000B0B100BF002000902068006800908E
:1022400020684068009000BF00BF2046FFF784FE72
:102250000820606400BF002084F8400000BF012017
:10226000D8E7FFE7206800682840A84201D1012094
:1022700000E00020B842C3D00020CBE700BFFEE75B
:102280000FB4054B10B503A9044A029802F006F8F2
:1022900010BC5DF814FB000099160108980200209C
:1022A0000FB4084B10B504A902AA039801F0F6FF79
:1022B000044602A9002002F074FB204610BC5DF821
:1022C00014FB0000A349000802480068C0F3022084
:1022D000704700000CED00E010B5002804DB0A0791
:1022E000130E054A135406E00A07140E034A00F0C1
:1022F0000F031B1FD45410BD00E400E018ED00E0F4
:1023000002E008C8121F08C1002AFAD170477047BE
:10231000002001E001C1121F002AFBD1704770B5F7
:102320000446002508E02168481C20600878303801
:1023300005EB850100EB41052168087800F0C6F83F
:102340000028F0D1284670BD2DE9FF5F82B0002142
:10235000DDE90430020DDDF840B0034318D044F647
:102360001050A2F2FF3242431514119801281FD0D9
:10237000A5EB0B00401C5FEA000A4FF000064E4F31
:10238000DFF83891B046504615D5CAF1000413E085
:10239000119801244AA3012801D16FEA0B01029888
:1023A000119AC0E90031C0E9024206B0BDE8F09FD1
:1023B000CBF10000DFE704460021404A491842EB18
:1023C0000450CDE9001012E0E00707D032463B464A
:1023D00040464946FDF777FF8046894632463B46F0
:1023E00010461946FDF76FFF06460F466410002C95
:1023F000EAD1DDE90401DDE90023BAF1000F06DAD4
:10240000FDF761FF42464B46FDF75DFF05E0FDF736
:10241000CCFF42464B46FDF7C8FF04460E4600225D
:10242000284BFEF781F803D84FF0FF30014607E054
:102430000022254B20463146FEF720F9FEF7C5F96C
:10244000102409E0002C0ADB0A220023FDF7BAFE63
:10245000039B30321A55641E50EA0102F2D1641C0B
:10246000039AC4F111031444119A012A03D00122E2
:1024700008430DD10AE0084304D000204FF0110BAF
:10248000119072E7A3EB0B056D1E0DE05B4504DDBB
:102490004FF0000205F1010504E003DA4FF00002FD
:1024A000A5F10105002AECD002981199C0E902318A
:1024B000C0E9004579E70000000014400000F03F4B
:1024C000300000000000F0430000E03F01463029EA
:1024D00003DB392901DC012070470020FCE7000004
:1024E00010B54421074801F02AF800221E210648B1
:1024F0002CF02AFF0549086002F07AFF0020044909
:10250000087010BD041F0020D1540008EC01002009
:10251000E80100202DE9F04F87B007460C4615462C
:102520002946204600F066F920B94FF0FF3007B089
:10253000BDE8F08F00222946204600F0FDF808B1E2
:102540000020F4E70026204618F025F8401E00B2CF
:102550000490204617F090FF401E00B20390688858
:102560006188401A0FFA80FABAF1000F16DD208850
:10257000ADF814006088ADF81600A088ADF818001A
:102580006088504400B2ADF81A003046711C4EB25B
:1025900007EBC0000599016006994160E8886188F1
:1025A000411A0398401A0FFA80FBBBF1000F1CDDA3
:1025B000B5F90600B4F90610884216DA2088ADF89D
:1025C0001400E888ADF81600A088ADF81800E88877
:1025D000584400B2ADF81A003046711C4EB207EBF9
:1025E000C0000599016006994160B5F90200B4F98F
:1025F0000210884202DDB5F9020001E0B4F90200E0
:102600008046B5F90600B4F90610884202DAB5F939
:10261000060001E0B4F9060002900298A0EB080061
:102620000FFA80F928882188401A00B20190019899
:1026300000281BDDB9F1000F18DD2088ADF814006B
:10264000ADF8168021880198084400B2ADF8180052
:1026500008EB090000B2ADF81A003046711C4EB20A
:1026600007EBC0000599016006994160A8882188A0
:10267000411A0498401A00B200900098002818DD12
:10268000A888ADF81400ADF81680A9880098084411
:1026900000B2ADF8180008EB090000B2ADF81A005E
:1026A0003046711C4EB207EBC000059901600699D7
:1026B000416030463BE730B50346B1F90040B2F91E
:1026C0000050AC4202DDB1F9004001E0B2F9004037
:1026D0001C80B1F90240B2F90250AC4202DDB1F9FE
:1026E000024001E0B2F902405C80B1F90440B2F965
:1026F0000450AC4202DAB1F9044001E0B2F90440FE
:102700009C80B1F90640B2F90650AC4202DAB1F948
:10271000064001E0B2F90640DC800120B3F9004038
:10272000B3F90450AC4205DCB3F90240B3F90650EA
:10273000AC4200DD002030BDF8B504460D4616461B
:102740000027B4F90000B5F90010884212DBB4F993
:102750000200B5F9021088420CDBB4F90400B5F9A7
:102760000410884206DCB4F90600B5F90610884268
:1027700000DC01270FB90020F8BD0EB90120FBE7EE
:102780002088ADF800006088ADF802003246694646
:10279000284600F0A7F808B90020EDE7A088ADF8BA
:1027A00000006088ADF8020032466946284600F015
:1027B00099F808B90020DFE72088ADF80000E0882C
:1027C000ADF8020032466946284600F08BF808B999
:1027D0000020D1E7A088ADF80000E088ADF8020045
:1027E00032466946284600F07DF808B90020C3E764
:1027F0000120C1E70246B2F90000B1F90430984265
:1028000013DCB2F90400B1F9003098420DDBB2F9E3
:102810000200B1F90630984207DCB2F90600B1F9BE
:102820000230984201DB012070470020FCE7F8B538
:1028300004460D461646B4F90400B5F90010884266
:1028400011DBB4F90600B5F9021088420BDBB4F9CC
:102850000000B5F90410884205DCB4F90200B5F9AE
:102860000610884201DD0120F8BD0EB90020FBE70B
:102870002088ADF800006088ADF802003246694655
:10288000284600F02FF808B10020EDE7A088ADF849
:1028900000006088ADF8020032466946284600F024
:1028A00021F808B10020DFE72088ADF80000E088BB
:1028B000ADF8020032466946284600F013F808B128
:1028C0000020D1E7A088ADF80000E088ADF8020054
:1028D00032466946284600F005F808B10020C3E7F3
:1028E0000120C1E72DE9FC5F05460E4614464FF076
:1028F000000AB6F90000B5F90010884213DBB6F9FA
:102900000000B5F9041088420DDCB6F90200B5F9F3
:102910000210884207DBB6F90200B5F906108842BA
:1029200001DC4FF0010ABAF1000F02D10020BDE82E
:10293000FC9F002C01DC0120F9E7284617F02BFE54
:10294000834600EBDB704710284617F095FD834661
:1029500000EBDB704FEA6008474501DA384600E0DB
:10296000404681464C4500DD4C462888ADF80000C5
:102970002888204400B2ADF804006888ADF8020051
:102980006888204400B2ADF806000022314668464F
:10299000FFF7A8FF80B1BDF80400204400B2ADF8F5
:1029A0000400BDF80600204400B2ADF80600314630
:1029B000684629F025F8BAE7E888001B00B2ADF8B0
:1029C0000200E888ADF80600002231466846FFF7AD
:1029D00089FF80B1BDF80400204400B2ADF80400C6
:1029E000BDF80200001B00B2ADF802003146684697
:1029F00029F006F89BE7A888001B00B2ADF800009C
:102A0000A888ADF80400002231466846FFF76AFF47
:102A100080B1BDF80000001B00B2ADF80000BDF8A9
:102A20000200001B00B2ADF802003146684628F0F3
:102A3000E7FF7CE76888ADF802006888204400B2B0
:102A4000ADF80600002231466846FFF74BFF80B123
:102A5000BDF80000001B00B2ADF80000BDF8060094
:102A6000204400B2ADF806003146684628F0C8FFA1
:102A70005DE701205BE710B5B1F90030B2F9004025
:102A8000A34202DAB1F9003001E0B2F9003003806C
:102A9000B1F90230B2F90240A34202DAB1F90230D0
:102AA00001E0B2F902304380B1F90430B2F90440D8
:102AB000A34202DDB1F9043001E0B2F904308380B1
:102AC000B1F90630B2F90640A34202DDB1F9063091
:102AD00001E0B2F90630C38010BD0000F8B505462C
:102AE0002CF0BAFB07460020009035B14C49E8684D
:102AF000086028462CF040FD03E01AF027FC484906
:102B0000086047490968086928F00EFE44480068D3
:102B1000406920B142490968486928F005FE4049EA
:102B20000968C86928F000FE3D490968086A28F06C
:102B3000FBFD3B480068006938B900203849096846
:102B4000A1F8500100BF00BFF8BD29F023F82FF015
:102B500019F82EF051FC32480068B0F850010028F6
:102B600056D02F4800680068007C00F0010040B398
:102B70002B4800680068C068406810B3002419E062
:102B80002748006800F59870005D00B110E0244807
:102B9000006800F5AC7000F034FD0646204800687F
:102BA000303000EBC400016831604068706000BFE5
:102BB000601C84B21A480068B0F85001A042DFDC03
:102BC00000BF4FF4807116480068303022F018FDC5
:102BD00020211348006800F5987022F011FD0020B4
:102BE0000F490968A1F8500138462CF027FB0090E6
:102BF0000B4800680068406A50B1094909680868D4
:102C00000749096809684B6A06490A6800999847A4
:102C100022F06EFA00F03EF800F006F800BF93E7ED
:102C2000A4000020A000002010B5002416E0C4EB92
:102C3000C4000C4951F8200030B1C4EBC401094A6A
:102C400052F8210022F006FBC4EBC401054A02EB56
:102C500081001C2122F0D4FC601CC4B2042CE6DBF1
:102C600010BD0000E01F00200146094A10680BE07B
:102C700042688A4202D002688A4204D1027E22F06F
:102C80000102521C027640690028F1D17047000011
:102C9000780000207047000010B50421014800F0C2
:102CA0004EFC10BDF81E002010B52021014800F098
:102CB00046FC10BD101F00202DE9FF4704460D46BD
:102CC00016461F46DDE90C896FB9B8F5807F0AD139
:102CD000002020806080681E00B2A080701E00B2BC
:102CE000E080BDE8FF8700200090019002900390F3
:102CF000ADF80450ADF80A60ADF80C50ADF80E60B8
:102D00004B4642463946684628F0B0FD4B4642469F
:102D1000394601A828F0AAFD4B464246394602A88A
:102D200028F0A4FD4B464246394603A828F09EFDF4
:102D3000BDF90000BDF90410884202DABDF90000B7
:102D400001E0BDF90400BDF90810BDF90C20914265
:102D500002DABDF9081001E0BDF90C1088420BDA67
:102D6000BDF90000BDF90410884202DABDF9000087
:102D70000DE0BDF904000AE0BDF90800BDF90C1032
:102D8000884202DABDF9080001E0BDF90C00801E9E
:102D900000B22080BDF90000BDF90410884202DDB8
:102DA000BDF9000001E0BDF90400BDF90810BDF94E
:102DB0000C20914202DDBDF9081001E0BDF90C10B4
:102DC00088420BDDBDF90000BDF90410884202DD28
:102DD000BDF900000DE0BDF904000AE0BDF90800EE
:102DE000BDF90C10884202DDBDF9080001E0BDF913
:102DF0000C00801C00B2A080BDF90210BDF90600D5
:102E0000814202DABDF9020001E0BDF90600BDF918
:102E10000A20BDF90E108A4202DABDF90A1001E05B
:102E2000BDF90E1088420BDABDF90210BDF906009B
:102E3000814202DABDF902000DE0BDF906000AE0A8
:102E4000BDF90A10BDF90E00814202DABDF90A008F
:102E500001E0BDF90E00801E00B26080BDF90210D5
:102E6000BDF90600814202DDBDF9020001E0BDF9B5
:102E70000600BDF90A20BDF90E108A4202DDBDF937
:102E80000A1001E0BDF90E1088420BDDBDF90210F9
:102E9000BDF90600814202DDBDF902000DE0BDF979
:102EA00006000AE0BDF90A10BDF90E00814202DDFC
:102EB000BDF90A0001E0BDF90E00801C00B2E080FF
:102EC00000BF0EE72DE9F743054616460024134CD4
:102ED0002CF0C2F98046334629462046019A1FF05D
:102EE00001FE07465FB900BF00BF2C21204622F03B
:102EF00087FB4FF00040A0620020BDE8FE83002069
:102F0000A062E06918B940462CF098F9E061E069E8
:102F100008B90120E0612046EFE70000341F0020DF
:102F200010B51421114800F00AFB1FF08DFD044676
:102F300000BF1CB900BF00BF00BFFEE700BF14B94F
:102F400000BF00BF10BD0A4920461FF065FE0949B9
:102F500020461FF063FE084920461FF061FE074926
:102F600020461FF057FE00BFECE700001C1F0020AA
:102F7000F9210208CD26020855290208C1210208BC
:102F800070B504460D461021284622F039FB206812
:102F90000078012804D1A08A2880E08A68800CE0AB
:102FA00020680078022802D1E068686005E02068A7
:102FB0000078042801D10A2068602068406820B1A8
:102FC000206829464268904701E000BF00BF70BDFD
:102FD0002DE9FE4F0446A08A18B9E08A08B9BDE879
:102FE000FE8FE66A96B920460DF00CFD064606B93E
:102FF000F5E7204611F07AFD0022092130461EF047
:1030000045F96078C0F3400000B1E8E700274FF4CD
:103010008078B14616E00021484625F02DFF38445F
:1030200007B20021484625F063FF8246C0170AEB2D
:103030001060001200FB08F00FFA80F8484624F0F8
:10304000B1FA8146B9F1000FE5D117B9B8F5807F23
:1030500011D0784207B24FF4803090FBF8F00FFAAD
:1030600080F8002000906B464246394604F1140077
:1030700028F0FCFB00BF00200290019094F8400073
:1030800000F00F00032812D1304624F0A9FB82463D
:10309000304624F02DFB834603200090B4F9141031
:1030A00053465A4630460CF08BFF029012E03046F1
:1030B00024F018FC8246304624F08CFA83460C201B
:1030C0000090B4F916105B46524630460CF078FF7B
:1030D000019000BF304624F0DDFA054605F00100FE
:1030E00028B9BDF90800002801DD0020029005F094
:1030F000020028B9BDF90800002801DA002002907A
:1031000005F0040028B9BDF90400002801DD002005
:10311000019005F0080028B9BDF90400002801DA83
:103120000020019001AA02A920462FF031FABDF932
:103130000420BDF90810304600F0FCFA6078C0F3B6
:10314000400000B14BE7208BBDF80810084401B2E5
:103150002183608BBDF80410084401B2618300BF75
:103160003DE72DE9F84F0446D4F82CB0BBF1000F31
:1031700001D1BDE8F88F94F8400000F00F0000B9CD
:10318000F7E71FF0F1FF06463068477E40215846BA
:1031900026F068F810B90021E183A183584624F095
:1031A0008DFB8046584624F093FB054694F840007A
:1031B00000F00F000C2843D10021A1831DBBB4F9FE
:1031C0001E00C7F164014843642190FBF1F001B295
:1031D000E183584624F0FEF98146584624F082FBEC
:1031E00082460C200090B4F91E104B4652465846B9
:1031F0000CF0E6FEE083B4F91E2000231946584681
:1032000027F0DCFB69E020462FF019FA009000213E
:10321000E1836A4620462FF0BBF9BDF9003041F644
:10322000FF72514258460DF0DFFD8146BDF80000A7
:10323000484402B201230021584627F0BFFB4CE06E
:1032400094F8400000F00F00032846D10021E183EC
:10325000B8F1000F23D1B4F91C00C7F16401484351
:10326000642190FBF1F001B2A183584624F040FAAA
:103270008146584624F0B4FA824603200090B4F9FF
:103280001C1053464A4658460CF09AFEA083B4F9E7
:103290001C1000231A46584627F090FB1DE02046DC
:1032A0002FF0B2F900900021A18300226946204648
:1032B0002FF06EF9BDF9003041F6FF7251425846C9
:1032C0000DF0F8FC8146BDF80000484401B201232E
:1032D0000022584627F072FB00BFA08B002860D167
:1032E000E08B00285DD11DBB584624F0FBFA8146D7
:1032F000584624F06FF98246B9F1000F02DCBAF1AA
:10330000000F14DDB9F1000F06DA01234A4600214F
:10331000584627F053FB0AE0BAF1000F07DA012301
:10332000CAF1000002B20021584627F047FB00BF57
:10333000B8F1000F23D1584624F0DAF981465846F7
:1033400024F04EFA8246B9F1000F02DCBAF1000F08
:1033500014DDB9F1000F06DA012300224946584670
:1033600027F02CFB0AE0BAF1000F07DA0123002254
:10337000CAF1000001B2584627F020FB00BF3246D8
:103380000A2158461DF082FF6078C0F3400000B16A
:10339000EFE694F8400020F00F0184F8401000217F
:1033A000E16200BFE5E62DE9FF4104460F4614B98E
:1033B00019F0CCFF04460CB9BDE8FF8120461AF095
:1033C0005EF800B9F8E794F82800C0F3800010B167
:1033D00000BF00BFF0E71FB90020A4F85001EBE7E1
:1033E0000020ADF80800ADF80A00204619F0C6FF2D
:1033F000401E00B2ADF80C0020461AF025F8401E21
:1034000000B2ADF80E0002AA39466846FFF753F93C
:10341000064606B9D0E72068007CC0F3400060B1E2
:1034200002982063039860630120A4F8500160684B
:1034300010B160682CF0ACF8BEE72068806918B164
:10344000206869468269904700250BE004F130004E
:1034500000EBC50100226846FFF76EF900B1ABE74B
:10346000681C85B2B4F85001A842EFDCB4F85001F2
:10347000202809DAB4F8502104F1300101EBC20030
:10348000694616F060FF0BE00020A4F85001B4F884
:10349000502104F1300101EBC20002A916F053FFE4
:1034A000B4F85001401CA4F85001606810B1606885
:1034B0002CF06EF800BF7FE770B50546284600F097
:1034C00013F8044600260CE02146284600F024F8B4
:1034D00006462146284600F0C0F8204621F0BAFEF4
:1034E0003446002CF0D170BD014609B90020704768
:1034F0004868FCE770B5064600243046FFF7F4FF45
:10350000054605E0641C2946304600F005F80546EE
:10351000002DF7D1204670BD02460B461068001DF5
:1035200003441868704702460B4610680344186845
:103530007047014609B9002070478868FCE70022FF
:1035400042608260CA1C22F003010160704770B5BE
:103550000446216801F1080021F09EFD0546A5B151
:103560000022294620462DF007FA294620466268A7
:103570002DF0F4F9606820B12A46204661682DF0EC
:10358000FBF96560A06800B9A560284670BD2DE90B
:10359000F04106460D4606B115B90020BDE8F081A0
:1035A0003046FFF7A1FFA84206D13046FFF7CFFF14
:1035B000044624BB0020F1E7316801F1080021F046
:1035C0006BFD04460CB90020E8E729463046FFF7BA
:1035D000AAFF07462246394630462DF0BFF93A4643
:1035E000214630462DF0C8F92246294630462DF0B6
:1035F000C3F92A46214630462DF0B0F900BF2046D7
:10360000CCE770B50446216801F1080021F044FDC3
:103610000546A5B10022294620462DF09FF92946EE
:103620002046A2682DF0A8F9A06820B12A462046BD
:10363000A1682DF093F9A560606800B9656028461F
:1036400070BD014609B901207047486818B98868FB
:1036500008B90120F8E70020F6E72DE9F04104461B
:103660000D460CB9BDE8F0812046FFF73DFFA842AA
:103670000FD129462046FFF74FFF6060606810B900
:103680000020A0602FE00022204661682DF074F930
:1036900029E02046FFF74DFFA8420FD129462046DA
:1036A000FFF741FFA060A06810B9002060601AE039
:1036B00000222046A1682DF051F914E02946204649
:1036C000FFF731FF064629462046FFF725FF07464C
:1036D0003A46314620462DF041F9324639462046D9
:1036E0002DF04AF900BF00BFBCE710B504462068C2
:1036F000806818B120682146826890472068006879
:1037000028B12068006820602046FFF7EEFF10BD5A
:103710000146886818B18868B0F916007047002023
:10372000FCE70146886818B18868807E8009704788
:103730000020FCE72DE9F04104460D4616461DB970
:1037400016B90120BDE8F081204622F077FEA0687E
:10375000008A284400B2A1680882A068408A3044E8
:1037600001B2A0684182012332462946204626F054
:1037700015FA00220B2120461DF088FD0746012F77
:1037800001D03846DEE7204626F030F90120D9E79F
:10379000F7B582B004460E4614B9049805B0F0BDE2
:1037A00000BF62223146204625F0ECF90190019DD0
:1037B00000BFBDB12868A8B100BF632231462046D2
:1037C00025F0E0F901900198C0B207464FB13A46A2
:1037D0002B682846049998470190BDF80400ADF87D
:1037E000100000BF0498D9E72DE9F04F95B00446CA
:1037F0008B4691469A461E9D608C20F0080008304A
:103800006084A4F820902A895946204625F0BAF908
:103810001490A4F820A02A895946204625F0B2F930
:103820001390608C20F008006084DDE9131088425A
:103830000CD1DDE91310884208D1BDF85000BDF865
:103840004C10884202D115B0BDE8F08FA4F820904A
:103850002A895946204625F095F91490A4F820A00D
:10386000594620460FF08AFA12902989129A106858
:10387000149A2AF01BF928890B2833D147F6FF71D7
:103880001498884202D0139888422BD1204625F004
:103890008CFC009000EBD0704710204623F032FEE5
:1038A000009000EBD0704FEA600847F6FF71149863
:1038B000884208D1781C08F10101884200DA01E051
:1038C00008F10100149047F6FF711398884208D15F
:1038D000781C08F10101884200DA01E008F10100DA
:1038E000139000BF2348FFF732FE064600BF1EB903
:1038F00000BF00BF00BFFEE700BF06B9A3E71498F2
:10390000F0601398306134602889B080C6F808B040
:1039100001A815F0D1FD314601A815F08CFE16491D
:1039200001A815F051FE1548039000BF144901A8E5
:1039300015F058FEFF22002101A815F06AFE298823
:1039400001A815F058FE698801A815F036FEE86850
:10395000089000BF01A8002190F8422061F3000206
:1039600080F8422000BF2869079001A815F07AFE70
:1039700000BF68E7281F00203D6F0308E5710308BA
:103980001571030810B514210148FFF7D8FD10BDCB
:10399000281F00202DE9FE4F04460F4690464FF0A9
:1039A000000900254CE1E06800EBC5004068C0F369
:1039B000406000B143E1E16801EBC501496821F0D5
:1039C0007F4027F076FE064626EA070008B9012068
:1039D00000E00020029026EA080008B9012000E07B
:1039E00000200190DDE90101814270D0E06850F8CB
:1039F00035A04FF0000B6A461021504629F02EFCEE
:103A000010B14FF0010B98E06A461121504629F0A1
:103A100025FC10B14FF0010B8FE06A461221504691
:103A200029F01CFC10B14FF0010B86E06A4613210F
:103A3000504629F013FC10B14FF0010B7DE06A46AF
:103A40001521504629F00AFC10B14FF0010B74E02B
:103A50006A461421504629F001FC10B14FF0010BC9
:103A60006BE06A460A21504629F0F8FB10B14FF08E
:103A7000010B62E06A466B21504629F0EFFB10B162
:103A80004FF0010B59E06A466C21504629F0E6FBE5
:103A900010B14FF0010B50E06A460121504629F069
:103AA000DDFB10B14FF0010B47E06A4604215046A0
:103AB00029F0D4FB10B14FF0010B3EE06A46022121
:103AC000504629F0CBFB18B14FF0010B35E0B5E0C3
:103AD0006A460321504629F0C1FB10B14FF0010B9B
:103AE0002BE06A460521504629F0B8FB10B14FF093
:103AF000010B22E06A460621504629F0AFFB10B1C7
:103B00004FF0010B19E06A463221504629F0A6FB1E
:103B100010B14FF0010B10E06A466E21504629F0BB
:103B20009DFB10B14FF0010B07E06A466D21504636
:103B300029F094FB08B14FF0010BBBF1000F02D04C
:103B40000320BDE8FE8F6A466921504629F086FBB6
:103B500010B14FF0020970E06A466A21504629F020
:103B60007DFB10B14FF0020967E06A466E215046B6
:103B700029F074FB10B14FF002095EE06A466D2136
:103B8000504629F06BFB10B14FF0020955E06A4630
:103B90003721504629F062FB10B14FF002094CE08A
:103BA0006A463821504629F059FB10B14FF00209FE
:103BB00043E06A463521504629F050FB10B14FF0E2
:103BC00002093AE06A464021504629F047FB10B10D
:103BD0004FF0020931E06A464521504629F03EFB8C
:103BE00010B14FF0020928E06A464121504629F001
:103BF00035FB10B14FF002091FE06A4642215046E2
:103C000029F02CFB10B14FF0020916E06A4643215F
:103C1000504629F023FB10B14FF002090DE06A462F
:103C20004921504629F01AFB10B14FF0020904E077
:103C3000B9F1000F01D14FF0010900BF00BF6D1CA9
:103C4000608CC0F30510A8423FF6ADAE484678E759
:103C50000148006870470000A4000020704701463A
:103C6000C1F30412072A00DD0722D0B2704700001A
:103C700001464FF6FF70814201D11F20704709B9FC
:103C80000020FBE7712902DA0948405CF6E7A1F160
:103C9000710081B20748006838B107480068814266
:103CA00003D204480068405CE8E70020E6E7000033
:103CB000C4E80308100200202402002010B51821D7
:103CC0000348FFF73CFC01202BF07AFB10BD0000FD
:103CD000D41E00202DE9F04105460F4616460DB9C9
:103CE000BDE8F0812846FCF7D0FA804639462846E0
:103CF0000A4A126890470746E8193146074A12688F
:103D0000904706463C4603E0A019285C2855641CF1
:103D1000A8EB0600A042F7D200BFE1E75402002062
:103D20002DE9F04106460C4617461D462946304609
:103D3000084A126890472060206830B129688819C5
:103D40000021044A1268904700E000203860BDE876
:103D5000F08100004C0200202DE9F04F87B00446AE
:103D60000F4692469846DDE910560DB10020288096
:103D70001CB9002007B0BDE8F08F207808B90020FA
:103D8000F8E70FB90020F5E74FF0000906F0020050
:103D900010B906F0040098B1002000E0401C215C3E
:103DA0000A2905D0215C0D2902D0215C0029F5D11A
:103DB000215C01B1401C15B14FF0FF312980D9E7DA
:103DC00006F0020008B141F6FF7800200690059049
:103DD00038E000200490059808B9012000E0002098
:103DE00006A904AACDE90062CDE902100599601880
:103DF0004346524639462BF04BFD83460498A8EBC8
:103E000000000FFA80F8049848440FFA80F9BBF1DB
:103E1000000F00D11CE005985844059020780A282E
:103E200002D020780D2800D112E00598205C0A28E5
:103E300003D00598205C0D2803D10598401C0590FF
:103E400006E000BF0598205C10B1B8F1000FC0DC9F
:103E500000BF059870B905A92046094A1268904725
:103E6000834635B10022594638461DF093FB0FFAC0
:103E700080F900BF0DB1A5F8009005987AE7000021
:103E80004C0200202DE9F04706468846174606B149
:103E90000FB9BDE8F0873046FCF7F7F981463846A0
:103EA000FCF7F3F9044604B9F3E704EB090A4146C9
:103EB00030460B4A126890478046554603E0281B5F
:103EC000305C70556D1E08EB0400A842F7D906EB74
:103ED00008002246394621F04DFB00BFD9E700001B
:103EE00054020020024600200FA31B788B4211D100
:103EF00013781BB90123137001200BE01378012BF9
:103F000002D10023137005E01378022B02D10023A5
:103F1000137001201378012B04D1202901D1022331
:103F200013700120704700002300000073B582B0B9
:103F3000064603980190324600210846019B2BF06B
:103F4000C7FF0546002001900024681C21F0A4F85A
:103F5000044600BF1CB900BF00BF00BFFEE700BFA2
:103F600014B9002004B070BD002060553246691CB1
:103F70002046039B2BF0ACFF2046F3E72DE9F047EA
:103F800081460E4614461F46DDF820A035461BE04C
:103F9000600800FB075529464846D047B0F10008A5
:103FA00009DD04F0010080F00100C0EB5404E819C1
:103FB0000546064608E0B8F1000F02DA6408354607
:103FC00002E02846BDE8F087002CE1D10020F9E7A7
:103FD0002DE9FF4F85B08346DDE9158ADDE91349F8
:103FE000DDE91775129E05F00200F8B94FB105F032
:103FF000010030B1B9F1000F02D105F00C0000B1A1
:104000007F1E03E030222046641C3254544501D206
:10401000202CF7D303E030222046641C325405F0F4
:10402000010018B1BC4201D2202CF4D305F01000DD
:10403000B0B305F4806050B94CB1544501D0BC42D6
:1040400005D1641E1CB1B8F1100F00D1641EB8F187
:10405000100F09D105F0200030B9202C04D27822AD
:104060002046641C325415E0B8F1100F09D105F058
:10407000200030B1202C04D258222046641C325437
:1040800008E0B8F1020F05D1202C03D262222046AD
:10409000641C3254202C03D230222046641C32543B
:1040A000202C16D2B9F1000F04D02D222046641C1A
:1040B00032540EE005F0040020B12B222046641C8F
:1040C000325406E005F0080018B120222046641C96
:1040D0003254CDE90275CDE90064584606A90EC9EF
:1040E00000F0A2F809B0BDE8F08F2DE9FF4F8FB0C6
:1040F0008046DDE91FABDDE91D96219D1C9C002754
:104100000CB925F0100505F4806000B1E4B100BFE2
:10411000B4FBF6F106FB1141C8B20A2802DA00F13D
:10412000300107E005F0200109B1412100E06121E3
:1041300001440A39CBB239467F1C07AA5354B4FB59
:10414000F6F40CB1202FE3D307A8CDE904AB8DE83A
:10415000810203960695404610A90EC9FFF738FF65
:1041600013B0BDE8F08F2DE9FF4F8FB0DDE9217B63
:10417000DDF89080209EDDE91C454FF0000900210C
:1041800084EA01006940084301D128F0100808F4CE
:10419000806028B1002184EA0100694008432DD0E5
:1041A00000BF32463B4620462946FCF70BF802F09A
:1041B000FF0ABAF10A0F02DA0AF1300007E008F04C
:1041C000200008B1412000E0612050440A38C2B20A
:1041D000484609F1010907A90A5432463B462046E0
:1041E0002946FBF7EFFF04460D46002184EA010053
:1041F0006940084302D0B9F1200FD2D32398CDE90A
:10420000036BCDE9050807A91E98CDE900190290B6
:104210000FA80FC8FFF7DCFE13B0BDE8F08F9A427D
:1042200000D28854704770472DE9FF5F0546144659
:10423000DDE90EA6DDE91087A34607F0020078B994
:1042400007F0010060B9B14607E02246641C202057
:10425000039B0199A84709F10109C145F5D300BFA6
:1042600008E02246641C711E0E461AF80100039BEA
:104270000199A847002EF4D107F0020050B105E0E3
:104280002246641C2020039B0199A847A4EB0B0045
:104290004045F5D3204604B0BDE8F09F2DE9FF4F1F
:1042A00095B09A46884606460025EEE1252877D146
:1042B00000242746F94A0121039400E0044316F83C
:1042C000013F203B01FA03F01042F7D130782A2851
:1042D00011D06FF02F033078A0F13002092A16D8E0
:1042E000039A44F0020402EB820203EB4202104400
:1042F000761C0390EFE758F8042B0392002A03DAA8
:10430000504244F40054039044F00204761C307888
:104310002E2816D116F8010F44F004042A280DD0D7
:104320006FF02F023078A0F13003092B09D807EB8A
:10433000870302EB4303C718761CF3E758F8047BA6
:10434000761C30786C280FD006DC4C2817D06828F3
:104350000DD06A2814D104E0742810D07A280FD127
:104360000DE044F400140AE044F4801401E044F445
:1043700040147278824202D104F58014761C761CB7
:10438000307866280BD013DC582877D009DC002859
:1043900075D04528F6D04628F4D047281AD193E1A5
:1043A00018E0632835D0642879D0652812D18BE1D4
:1043B000702873D008DC6728F1D069286FD06E2888
:1043C0000DD06F2806D1ACE073282CD0752874D09E
:1043D000782853D05246179990476D1C54E1C4F386
:1043E0000250022809D003280DD0D8F80010042864
:1043F0000DD00D6008F1040846E1D8F80010EA1766
:10440000C1E90052F6E7D8F800100D80F2E70D7010
:10441000F0E718F8041B8DF8001000208DF801005B
:10442000EB46012003E058F804BB4FF0FF30610772
:104430004FF0000102D40DE009F101018946B942B3
:104440000FDA8145F8DB1BF809100029F4D108E0E8
:1044500009F1010189468142FADB1BF809100029A4
:10446000F6D103985346A0EB090721463846179A20
:1044700000F080FA284400EB090507E044E008E179
:104480000DE01BF8010B524617999047B9F101094D
:10449000F7D2534621463846179AF2E039E00A210E
:1044A000C4F302524FF0000B0091022A06D058F8D4
:1044B000040BC117032A09D00AE023E008F1070022
:1044C00020F00702F2E80201904605E000B2C117B1
:1044D000042A01D140B2C117002906DA0A46002198
:1044E000404261EB02012D2202E0220504D52B227D
:1044F0008DF80420012203E0E20701D02022F7E733
:10450000914657E00A2100E010214FF0000B009186
:104510000BE010214FF0000B44F004040827009139
:1045200003E008204FF0000B0090C4F30252022A6F
:1045300005D058F8040B0021032A08D008E008F140
:10454000070020F00702F2E80201904603E080B283
:10455000042A00D1C0B24FF0000922072AD53278D0
:10456000702A07D0DDF800C08CF0100C5CEA0B0C50
:1045700005D00EE040228DF80420012208E050EA28
:10458000010306D030238DF804308DF80520022277
:104590009146009B83F0080353EA0B030AD150EACB
:1045A000010201D1620705D530228DF804204FF0B9
:1045B00001097F1E3278582A04D039A20C920CAA25
:1045C00002920BE03BA2F9E75B46009AFBF7FAFD8B
:1045D0000C9B9B5C029A521E0292137050EA0102DD
:1045E000F2D1029804A9081A00F1200B600702D545
:1045F00024F4803400E001275F4502DDA7EB0B00C7
:1046000000E0002000EB0B01009003984944401AA1
:104610000390E00306D453462146179A039800F00E
:10462000A9F90544002706E001A85246C05D179984
:1046300090476D1C7F1C4F45F6DBE0030CD55346BD
:104640002146179A039800F095F9054404E03020BC
:104650005246179990476D1C0099481E00900029FA
:10466000F5DC08E00298029952460078491C029154
:10467000179990476D1CBBF10001ABF1010BF1DC08
:104680005BE100F065F90544761C307800287FF482
:104690000DAE19B02846BDE8F08F000009280100D2
:1046A00030313233343536373839616263646566A8
:1046B000000000003031323334353637383941426A
:1046C0004344454600000000600700D4062708F177
:1046D000070020F00700F0E80223804603F0004CBA
:1046E0005FEA0C0001D097A009E0200501D596A053
:1046F00005E0E00701D095A001E0AFF24C00139077
:10470000307823F0004365280CD006DC452809D01A
:1047100046281DD047287FD13BE0662818D067285F
:104720007AD136E00021112F01DB112000E0781C46
:10473000CDE9000104A90CA8FDF706FEDDE90D0195
:104740000C9A4FF0000B07F10109109200914EE016
:104750004FF000400097CDE9011004A90CA8FDF727
:10476000F3FDDDE90D020C9B0F994FF0000B914614
:104770001093009211B9791C00EB0109B7EB090005
:1047800003D4C0F1FF3B07F10109A9EB0700019039
:1047900042E0012F00DA01270021112F01DD112055
:1047A00000E03846CDE9000104A90CA8FDF7CCFDD6
:1047B000DDE90D010C9A00914FF0000BB946109203
:1047C00021070FD4009A4A4503DA914601E0A9F186
:1047D0000109B9F1010F05DD109AA9F10101515C40
:1047E0003029F4D0B84202DA10F1040F03DA0121C3
:1047F000CDE9011010E0002803DC8344A9EB00019F
:1048000002E0411C494500DD8946A0EB0B00401C3D
:1048100001904FF000400290200705D401984845D0
:1048200002DB4FF0FF30019000208DF84B00029822
:104830000DF14B07B0F1004F25D002200C902B203A
:104840000D90029800280CDA404202902D200D9025
:1048500007E00A210298FBF77FFE3031029007F84B
:10486000011D0C99481E0C900029F2DC02980028CA
:10487000EFD1791E0D980870307800F0200040F0DC
:10488000450007F8020D11A8C01BC01D0290139827
:10489000007800B1012000EB0901019801EBE07103
:1048A000029801440398401A401E0390E00306D486
:1048B00053462146179A039800F05CF80544139874
:1048C000007818B15246179990476D1CE00323D524
:1048D00053462146179A039800F04CF805441BE014
:1048E000BBF1000F07DB0098584504DD10981799BD
:1048F00010F80B0001E017993020524690470198BC
:104900000BF1010B401E05F10105019004D12E2091
:104910005246179990476D1CB9F10001A9F10109A0
:10492000DEDC05E017F8010B5246179990476D1C25
:104930000299481E02900029F4DC53462146179A3A
:1049400003989EE62D0000002B00000020000000D0
:104950002DE9F041044600251E461746880404D47C
:1049600005E039462020B0476D1C641EF9D5284665
:10497000BDE8F0812DE9F041044600251E46904631
:10498000C80301D5302700E02027880404D505E0BE
:1049900041463846B0476D1C641EF9D52846BDE82F
:1049A000F0810A68531C0B60107070472DE9FF4FAF
:1049B0008BB0074600250C9800B9FA4FEAE20E9832
:1049C000007825280AD02A466D1C0E990878DDE962
:1049D0000C13B8470E98401C0E90DBE20E98401C5A
:1049E0000E90002400BF0E9800782B2819D004DC0C
:1049F00020281ED023282CD123E02D2809D03028B0
:104A000027D144F001040E98401C0E9001200A901A
:104A100022E044F002040E98401C0E9001200A90FF
:104A20001AE044F004040E98401C0E9001200A90F5
:104A300012E044F008040E98401C0E9001200A90E9
:104A40000AE044F010040E98401C0E9001200A90D9
:104A500002E000200A9000BF00BF0A980028C2D1DF
:104A600080460E990878FDF731FD20B10EA8FDF7BC
:104A700056FC804612E00E9800782A280ED118992C
:104A800001C91891002804DA44F00204C0F10008BA
:104A900000E080460E99491C0E9100BF4FF00009BE
:104AA0000E9800782E281FD144F480640E98401C84
:104AB0000E900E990878FDF709FD20B10EA8FDF7BC
:104AC0002EFC814610E00E9800782A280CD1189907
:104AD00001C91891002801DD014600E00021894646
:104AE0000E99491C0E9100BF0E9800786C280AD0D0
:104AF00004DC682816D06A2835D128E0742820D034
:104B00007A2830D129E044F480740E98401C0E902D
:104B10000E9800786C2804D144F400740E98401C60
:104B20000E9021E044F080040E98401C0E900E98E8
:104B30000078682804D144F040040E98401C0E9080
:104B400012E044F480740E98401C0E900CE044F483
:104B500000740E98401C0E9006E044F480740E9889
:104B6000401C0E9000E000BF00BF0E98007869283E
:104B70001DD00EDC622821D006DC25287ED05028EE
:104B80001AD058287BD115E0632879D06428F9D150
:104B90000CE0732875D004DC6F280ED07028F1D19A
:104BA00009E0752804D07828ECD102E000BF00BFEE
:104BB00000BF00BF00BF00BF00BF00BF0E9800785D
:104BC000782803D00E980078582801D1102623E0C9
:104BD0000E980078702803D00E98007850280CD1D9
:104BE000102644F0100444F480740E98407856283F
:104BF00012D10E98401C0E900EE00E9800786F288F
:104C000001D1082608E00E980078622801D102261A
:104C100002E00A2624F010040E980078582803D0E9
:104C20000E980078502801D144F020040E980078A6
:104C3000692805D00E980078642801D024F00C046F
:104C400004F4806008B124F001040E98007869280B
:104C500003D00E98007864287CD104F40070B8B3B7
:104C60001898C01D20F007001890D0E900AB189AE2
:104C7000083218920020CDE9069803E073E17CE148
:104C8000F2E01CE1CDE904600894BAEB00017BEB93
:104C9000000001DA012000E0002000210290084617
:104CA000B1EB0A0170EB0B0002DA5046594605E001
:104CB00000200146B0EB0A0061EB0B01CDE90001D9
:104CC0002A463846DDE90C13FFF74DFA0546C7E0E2
:104CD000FFE704F48070D0B1189850F804AB189036
:104CE0004FEADA70CDE9039802960594BAF1000F05
:104CF00001DD514601E0CAF10001CDE900102A466C
:104D00003846DDE90C13FFF7F0F90546A8E004F09A
:104D1000400028B1189810F8041B1890C8B20DE094
:104D200004F0800028B1189830F8041B189008B2DD
:104D300004E0189800681899091D189182464FEAF6
:104D4000DA70CDE9039802960594BAF1000F02DDFE
:104D5000514602E00BE0CAF10001CDE900102A46FD
:104D60003846DDE90C13FFF7C0F9054678E00E98E8
:104D70000078562818D1189850F804AB1890DAF833
:104D800004000068099009980090DAF800300D9846
:104D9000421B0C9841193846FFF708FE05440020D5
:104DA00009905DE02742000804F40070D0B1189823
:104DB000C01D20F00700CDE9069808941890002047
:104DC000CDE904600290189903C9189A0832189224
:104DD000CDE900012A463846DDE90C13FFF7C3F997
:104DE00005463DE004F4807098B10022CDE90398B7
:104DF00002960594189800681899091DCDE90002DB
:104E000018912A463846DDE90C13FFF76EF905467E
:104E100026E004F0400028B1189810F8041B189000
:104E2000C8B20DE004F0800028B1189830F8041BD7
:104E3000189088B204E0189800681899091D189114
:104E400082460020CDE900A0CDE9039802960594A2
:104E50002A463846DDE90C13FFF747F9054600BF3F
:104E60000E98401C0E9093E0012604F0020050B909
:104E700005E02A466D1C2020DDE90C13B8473046BA
:104E8000761C4045F5D3189911F8043BD8B22A4650
:104E90006D1C1891DDE90C13B84704F0020050B105
:104EA00005E02A466D1C2020DDE90C13B84730468A
:104EB000761C4045F5D30E98401C0E9068E018987B
:104EC00050F804AB18905046B9F1000F01D0494694
:104ED00001E04FF0FF310A46014600E0491C0B7823
:104EE0001BB1131EA2F10102F8D10E1A04F4806066
:104EF00028B14E4501D2304600E04846064604F04F
:104F0000020050B905E02A466D1C2020DDE90C1393
:104F1000B8473046761C4045F5D306E01AF8010B39
:104F20002A466D1CDDE90C13B8479AF8000040B121
:104F300004F480600028F1D0B9F10000A9F1010962
:104F4000ECD104F0020050B105E02A466D1C20208F
:104F5000DDE90C13B8473046761C4045F5D30E9872
:104F6000401C0E9014E02A466D1C2520DDE90C1330
:104F7000B8470E98401C0E900AE02A466D1C0E9908
:104F80000878DDE90C13B8470E98401C0E9000BF5E
:104F900000BF00BF0E98007800287FF410AD0D9878
:104FA000854201D2284601E00D98401E02460020AD
:104FB000DDE90C13B84728460FB0BDE8F08F2DE9A6
:104FC000F04104460E46002774B13146204600F0F9
:104FD0002DF80546B5F5803F05D20C2D01D92846A0
:104FE00000E00C20074600BF3846BDE8F0810246CD
:104FF00000BF481E084018B100BF00BF00BFFEE759
:1050000000BF481E1040101A704710B502464B1ED4
:1050100013444C1E23EA040000BF4B1E0B401BB17F
:1050200000BF00BF00BFFEE700BF10BD024600BFCB
:10503000481E084018B100BF00BF00BFFEE700BF18
:10504000481E10444B1E9843704700002DE9F04164
:1050500080460E46444601206086002500270DE06C
:1050600056F8270025A1FBF717F910B1681C85B287
:1050700002E0608E401C6086781C87B256F82700DC
:1050800020B156F8270000780028E9D1208EA842E8
:1050900001D1BDE8F081A06A20B1A06A20F0DAF861
:1050A0000020A062E06A20B1E06A20F0D3F800207E
:1050B000E062E8001FF0F0FFA06200BFA06A18B92C
:1050C00000BF00BF00BFFEE700BF68001FF0E4FFA5
:1050D000E06200BFE06A18B900BF00BF00BFFEE792
:1050E00000BFA06A08B1E06A00B900256900E06A63
:1050F00020F086FA258600BFCBE700000A000000FA
:105100002DE9F84F81460E46924699F8090000F0C5
:105110000700022801D1304600E05046834656453C
:1051200001DD304600E050460746032000EB470013
:1051300020F0030000F1100539480068394909687A
:10514000A0EB0108002405EB0800374909688842F4
:1051500006D233480468606820F0004060603AE09E
:1051600031480068854221D813E04FF0FF300090AD
:10517000002269462D4810F03DFA002269462C486D
:1051800010F038FA2648006826490968A0EB0108A3
:1051900000BF08EB0500244909688842E5D820488B
:1051A0000468606820F00040606014E028461FF04A
:1051B00073FF044600BF1CB900BF00BF00BFFEE77D
:1051C00000BF14B90020BDE8F88F606820F00040EF
:1051D00000F10040606032465946484602F046F908
:1051E0002060606800F04040401C6060606820F013
:1051F00080406060A781A4F80EB06068C00F20B145
:10520000204600F11001A16008E005480068103058
:10521000A060034800682844014908602046D2E79E
:10522000AC0000200C020020A8000020E7090108C3
:1052300009570108F0B585B006460D4634460020F2
:1052400004900390029065480088A84202D0FF2095
:10525000634908706148058094F83C0000F0030041
:1052600020B1012838D0022866D000BF94F83C0055
:1052700000F003005A49097888421BD02620005DBF
:1052800000EB001000EB4000142190FBF1F05549B9
:1052900008702720005D00EB001000EB4000142197
:1052A00090FBF1F05049087094F83C0000F00300C6
:1052B0004B49087002A803A9CDE9001005EB450190
:1052C0004FF6FF7202EA410004AB47490A784549AC
:1052D00009780BF057F85FE094F83C0000F0030009
:1052E0003F49097888421AD0A08C00EB4000400268
:1052F0004FF4B471B0FBF1F03C4908802720005D09
:1053000000EB001000EB4000142190FBF1F0364957
:10531000087094F83C0000F003003149087002A8BE
:1053200003A9CDE90010E9B204AB2F4802782F4859
:1053300000880BF027F82FE094F83C0000F0030001
:105340002749097888421AD0A08C00EB400040021F
:105350004FF4B471B0FBF1F0244908802620005DC1
:1053600000EB001000EB4000142190FBF1F01D4910
:10537000087094F83C0000F003001949087002A876
:1053800003A9EAB204ABCDE900101648017817482A
:1053900000880AF0F7FF00BF00BF9DF810009DF8DD
:1053A0000C109DF80820D708BDF8003067F30403FF
:1053B0008F080093BDF8003067F34A13C7080093C5
:1053C000BDF8003067F3CF230093BDF800703B4673
:1053D0000193BDF80410084605B0F0BD5C01002043
:1053E0005A010020580100205901002056010020D8
:1053F00010B50120074908700748FEF775F820B975
:10540000064800682AF0B8F803E0044800682AF06B
:10541000BFF810BDE8010020041F0020EC010020AF
:1054200010B5044694F84200C0F3400070B9B4F8D7
:10543000400000280ADDB4F840004FF6FF718842B2
:1054400004D0B4F84000401EA4F84000B4F8400076
:10545000D0B9A06B20B194F84200C0F3400098B1DD
:1054600021461A48FEF7F9F8FFF7C2FFE06810B1CD
:105470002046E1688847206910B1204621698847A5
:1054800020461FF0E7FE1FE0E06B40422063A06B68
:10549000D0B194F84210C1F3400111B9616B494297
:1054A000216394F842104908C94394F8422061F3FB
:1054B000410284F84220206AA16A2162A062E06A67
:1054C000A16BE162A06300BF10BD0000041F0020BB
:1054D0002DE9F04180464248006829F0AFFE0646BB
:1054E0004048007880F001003E4908703E48FDF7D2
:1054F000FBFF04466BE000203C49087094F8420032
:10550000C0F3800037490978884253D03548017884
:105510003034A07C61F38200A07420688719A07CDD
:10552000303CC0F3C00010BB206B00281FDC002FF4
:105530001DDB94F8420000F0010060B9606950B1D1
:105540002046616988470546206A28442062A06A8F
:105550002844A06200BFA06810B12046A168884717
:1055600094F8420020F00800083084F84200206BD4
:1055700030442063206B00281BDBD4E90B108842E9
:1055800001DDE06A20632046E16988470546606ADC
:10559000A84206D06562606818B12946D4E90002C5
:1055A0009047D4E90B10884202DB2046FFF738FF12
:1055B00000BF00BF0D48007820B10B48FDF794FFF5
:1055C000044604E021460848FDF7A6FF0446002CE7
:1055D00091D129F041FE02490860BDE8F081000048
:1055E000E4010020E9010020041F0020E801002060
:1055F00070B504460D46606818B129466068FFF72B
:10560000F7FF206818B1294620462268904770BDF0
:1056100070B505460C46A1B2284614F0C1FD70BD18
:1056200070B505460C46A1B2284614F00AFE70BDBE
:105630002DE9FF4F8FB01F46DDF888801C980E9033
:105640001D980D9000200B902398042806D0052863
:1056500009D006280CD014281AD114E000200C9090
:105660004FF0020917E001200C904FF0030912E0FF
:1056700001200C904FF00209FEF7EAFA054628686F
:10568000008F0B9007E001200C904FF0020902E020
:1056900013B0BDE8F08F00BF002489E11E9860437D
:1056A0000E9901EB20201C901F9860430D9901EB8F
:1056B00020201D901C9805121D980612002D07DB56
:1056C0001098854204DA002E02DB1198864203DB33
:1056D000002008F8040069E11C98C0B20A901D98E7
:1056E00000F0FF0A0A98802807DA4FF0FF3B0A987B
:1056F000C0F17F0040000A9005E04FF0010B0A98CE
:10570000803840000A90BAF1800F07DA4FF0FF307E
:105710000990CAF17F004FEA400A05E00120099094
:10572000AAF180004FEA400A0F98089006FB07F0A4
:1057300000FB09F005FB090108980844089005EBF7
:105740000B0000287EDB05EB0B011098401E814208
:1057500078DC099830440028F4DB09983118119856
:10576000401E8142F4DC0898079008980BFB090062
:105770000690099800FB07F1089801FB09000590C5
:105780000C9800287FD0239B052B06D1079B987887
:10579000059B9978069B9A783BE0239B142B18D1A4
:1057A000DDF844C007FB0CFCDDF83CE00EEB4C03DD
:1057B00006FB073C1CF8050006FB073CAC441CF844
:1057C0000B20DDF824C0B4440CFB073C1CF805108A
:1057D0001FE0239B062B19D1079B1B88BDF82CC00B
:1057E00063450BD0059B1B88BDF82CC0634505D0D5
:1057F000069B1B88BDF82CC0634503D1002308F825
:105800000430D3E0FF20FF21FF2202E0FF20FF2130
:10581000FF22814207D001FB0AF3CAF5807C00FB1E
:105820000C33C3F30721824209D00A9B5343DDF8AE
:1058300028C0CCF5807C00FB0C33C3F307228B1807
:105840005B1000E059E008F8043018F8043003B9A0
:10585000ACE0079B93F800C05B780CEB03239BB292
:105860000493059B93F800C05B780CEB03239BB279
:105870000393069B93F800C05B780CEB03239BB269
:1058800002930CE0FFE707980088049006980088D0
:105890000290059800880390FF2008F80400BDF8E6
:1058A0001000BDF80C1088420CD1BDF81000BDF8F6
:1058B0000810884206D1219800EB4400BDF8101072
:1058C000018019E00AF0FF02DDE9030116F0C4FFD0
:1058D00003900A98C2B20499029816F0BDFF029094
:1058E0007F22DDE9020116F0B7FF0190219800EB5D
:1058F0004400BDF80410018057E008990A784978FF
:1059000002EB01218AB2219921F81420239905295B
:1059100004D0062905D0142919D10EE008998878F9
:1059200017E0219931F81410BDF82C20914201D1D3
:10593000002100E0FF2108460BE0119A07FB02F16D
:105940000F9A02EB410106FB0711485D01E0FF20C1
:1059500000BF00BF15B9BBF1000F06DB1099491E4F
:10596000A9420BD1BBF1000F08DD0A99C1F1FF017B
:105970004143C1F3072108F8041015E016B909994D
:10598000002906DB1199491EB1420AD10999002963
:1059900007DDCAF1FF014143C1F3072108F80410F4
:1059A00002E0002108F8041000BF00BF601C04B230
:1059B00020988442FFF672AE00BF69E62DE9F84FE9
:1059C00004468C4690469946109FDDE90A56AA4641
:1059D0000096002032E00C9941430AEB21250D99F5
:1059E0004143DDF800B00BEB21262A123312002AC6
:1059F00005DB624503DA002B01DB434502DB0021B6
:105A0000395419E0214603FB09FB0BEB4B0B02EB6E
:105A1000420EF344594491F800B091F801E00BEBC9
:105A20000E2B1FFA8BFEDDF83CB02BF810E091F83E
:105A300002B007F800B000BF411C08B20E998842BE
:105A4000C9DBBDE8F88F10B50DF0BEFE10BD70B516
:105A500005460C46164606E028466A1C95B200F03C
:105A600008F804F8010B301EA6F101018EB2F3D143
:105A700070BD70B504460DF07DFF2112A02202EB2F
:105A80004101C8B20DF03EFF0DF0BCFF2546E11705
:105A900004EB11610912A4EB0121C8B20DF032FF31
:105AA0000DF0B0FF0DF066FFA1200DF02BFF0DF003
:105AB000A9FF00200DF0F2FE06460DF083FF3046F0
:105AC00070BD70B505460C46164606E014F8011B7D
:105AD00028466B1C9DB200F006F8301EA6F10101AD
